{
  "_format": "hh-sol-artifact-1",
  "contractName": "ReTEX",
  "sourceName": "src/ReTEX.sol",
  "abi": [
    {
      "inputs": [],
      "stateMutability": "nonpayable",
      "type": "constructor"
    },
    {
      "inputs": [
        {
          "internalType": "address",
          "name": "",
          "type": "address"
        }
      ],
      "name": "UserDatamap",
      "outputs": [
        {
          "internalType": "uint256",
          "name": "produced",
          "type": "uint256"
        },
        {
          "internalType": "uint256",
          "name": "consumed",
          "type": "uint256"
        },
        {
          "internalType": "string",
          "name": "name",
          "type": "string"
        }
      ],
      "stateMutability": "view",
      "type": "function"
    },
    {
      "inputs": [
        {
          "internalType": "string",
          "name": "_name",
          "type": "string"
        }
      ],
      "name": "getValueByName",
      "outputs": [
        {
          "internalType": "uint256",
          "name": "",
          "type": "uint256"
        },
        {
          "internalType": "uint256",
          "name": "",
          "type": "uint256"
        },
        {
          "internalType": "string",
          "name": "",
          "type": "string"
        }
      ],
      "stateMutability": "view",
      "type": "function"
    },
    {
      "inputs": [],
      "name": "getValues",
      "outputs": [
        {
          "internalType": "uint256",
          "name": "",
          "type": "uint256"
        },
        {
          "internalType": "uint256",
          "name": "",
          "type": "uint256"
        },
        {
          "internalType": "string",
          "name": "",
          "type": "string"
        }
      ],
      "stateMutability": "view",
      "type": "function"
    },
    {
      "inputs": [
        {
          "internalType": "string",
          "name": "",
          "type": "string"
        }
      ],
      "name": "nameToAddress",
      "outputs": [
        {
          "internalType": "address",
          "name": "",
          "type": "address"
        }
      ],
      "stateMutability": "view",
      "type": "function"
    },
    {
      "inputs": [],
      "name": "owner",
      "outputs": [
        {
          "internalType": "address",
          "name": "",
          "type": "address"
        }
      ],
      "stateMutability": "view",
      "type": "function"
    },
    {
      "inputs": [
        {
          "internalType": "string",
          "name": "_name",
          "type": "string"
        }
      ],
      "name": "setName",
      "outputs": [],
      "stateMutability": "nonpayable",
      "type": "function"
    },
    {
      "inputs": [
        {
          "internalType": "uint256",
          "name": "_value1",
          "type": "uint256"
        },
        {
          "internalType": "uint256",
          "name": "_value2",
          "type": "uint256"
        }
      ],
      "name": "setValues",
      "outputs": [],
      "stateMutability": "nonpayable",
      "type": "function"
    }
  ],
  "bytecode": "0x60a060405234801561001057600080fd5b503373ffffffffffffffffffffffffffffffffffffffff1660808173ffffffffffffffffffffffffffffffffffffffff1681525050608051610d1561006060003960006102c50152610d156000f3fe608060405234801561001057600080fd5b506004361061007d5760003560e01c80639c3dfaf61161005b5780639c3dfaf6146100f0578063c47f00271461010c578063f5263bb414610128578063fac9b8c21461015a5761007d565b806308d88aad1461008257806319eb4a90146100b25780638da5cb5b146100d2575b600080fd5b61009c6004803603810190610097919061076e565b61018c565b6040516100a991906107f8565b60405180910390f35b6100ba6101d5565b6040516100c9939291906108ab565b60405180910390f35b6100da6102c3565b6040516100e791906107f8565b60405180910390f35b61010a60048036038101906101059190610915565b6102e7565b005b6101266004803603810190610121919061076e565b61037f565b005b610142600480360381019061013d9190610981565b61042f565b604051610151939291906108ab565b60405180910390f35b610174600480360381019061016f919061076e565b6104e1565b604051610183939291906108ab565b60405180910390f35b6000818051602081018201805184825260208301602085012081835280955050505050506000915054906101000a900473ffffffffffffffffffffffffffffffffffffffff1681565b60008060606000600160003373ffffffffffffffffffffffffffffffffffffffff1673ffffffffffffffffffffffffffffffffffffffff16815260200190815260200160002090508060000154816001015482600201808054610237906109dd565b80601f0160208091040260200160405190810160405280929190818152602001828054610263906109dd565b80156102b05780601f10610285576101008083540402835291602001916102b0565b820191906000526020600020905b81548152906001019060200180831161029357829003601f168201915b5050505050905093509350935050909192565b7f000000000000000000000000000000000000000000000000000000000000000081565b600033905082600160008373ffffffffffffffffffffffffffffffffffffffff1673ffffffffffffffffffffffffffffffffffffffff1681526020019081526020016000206000018190555081600160008373ffffffffffffffffffffffffffffffffffffffff1673ffffffffffffffffffffffffffffffffffffffff16815260200190815260200160002060010181905550505050565b80600160003373ffffffffffffffffffffffffffffffffffffffff1673ffffffffffffffffffffffffffffffffffffffff16815260200190815260200160002060020190816103ce9190610bba565b50336000826040516103e09190610cc8565b908152602001604051809103902060006101000a81548173ffffffffffffffffffffffffffffffffffffffff021916908373ffffffffffffffffffffffffffffffffffffffff16021790555050565b600160205280600052604060002060009150905080600001549080600101549080600201805461045e906109dd565b80601f016020809104026020016040519081016040528092919081815260200182805461048a906109dd565b80156104d75780601f106104ac576101008083540402835291602001916104d7565b820191906000526020600020905b8154815290600101906020018083116104ba57829003601f168201915b5050505050905083565b6000806060600080856040516104f79190610cc8565b908152602001604051809103902060009054906101000a900473ffffffffffffffffffffffffffffffffffffffff1690506000600160008373ffffffffffffffffffffffffffffffffffffffff1673ffffffffffffffffffffffffffffffffffffffff16815260200190815260200160002090508060000154816001015482600201808054610585906109dd565b80601f01602080910402602001604051908101604052809291908181526020018280546105b1906109dd565b80156105fe5780601f106105d3576101008083540402835291602001916105fe565b820191906000526020600020905b8154815290600101906020018083116105e157829003601f168201915b5050505050905094509450945050509193909250565b6000604051905090565b600080fd5b600080fd5b600080fd5b600080fd5b6000601f19601f8301169050919050565b7f4e487b7100000000000000000000000000000000000000000000000000000000600052604160045260246000fd5b61067b82610632565b810181811067ffffffffffffffff8211171561069a57610699610643565b5b80604052505050565b60006106ad610614565b90506106b98282610672565b919050565b600067ffffffffffffffff8211156106d9576106d8610643565b5b6106e282610632565b9050602081019050919050565b82818337600083830152505050565b600061071161070c846106be565b6106a3565b90508281526020810184848401111561072d5761072c61062d565b5b6107388482856106ef565b509392505050565b600082601f83011261075557610754610628565b5b81356107658482602086016106fe565b91505092915050565b6000602082840312156107845761078361061e565b5b600082013567ffffffffffffffff8111156107a2576107a1610623565b5b6107ae84828501610740565b91505092915050565b600073ffffffffffffffffffffffffffffffffffffffff82169050919050565b60006107e2826107b7565b9050919050565b6107f2816107d7565b82525050565b600060208201905061080d60008301846107e9565b92915050565b6000819050919050565b61082681610813565b82525050565b600081519050919050565b600082825260208201905092915050565b60005b8381101561086657808201518184015260208101905061084b565b60008484015250505050565b600061087d8261082c565b6108878185610837565b9350610897818560208601610848565b6108a081610632565b840191505092915050565b60006060820190506108c0600083018661081d565b6108cd602083018561081d565b81810360408301526108df8184610872565b9050949350505050565b6108f281610813565b81146108fd57600080fd5b50565b60008135905061090f816108e9565b92915050565b6000806040838503121561092c5761092b61061e565b5b600061093a85828601610900565b925050602061094b85828601610900565b9150509250929050565b61095e816107d7565b811461096957600080fd5b50565b60008135905061097b81610955565b92915050565b6000602082840312156109975761099661061e565b5b60006109a58482850161096c565b91505092915050565b7f4e487b7100000000000000000000000000000000000000000000000000000000600052602260045260246000fd5b600060028204905060018216806109f557607f821691505b602082108103610a0857610a076109ae565b5b50919050565b60008190508160005260206000209050919050565b60006020601f8301049050919050565b600082821b905092915050565b600060088302610a707fffffffffffffffffffffffffffffffffffffffffffffffffffffffffffffffff82610a33565b610a7a8683610a33565b95508019841693508086168417925050509392505050565b6000819050919050565b6000610ab7610ab2610aad84610813565b610a92565b610813565b9050919050565b6000819050919050565b610ad183610a9c565b610ae5610add82610abe565b848454610a40565b825550505050565b600090565b610afa610aed565b610b05818484610ac8565b505050565b5b81811015610b2957610b1e600082610af2565b600181019050610b0b565b5050565b601f821115610b6e57610b3f81610a0e565b610b4884610a23565b81016020851015610b57578190505b610b6b610b6385610a23565b830182610b0a565b50505b505050565b600082821c905092915050565b6000610b9160001984600802610b73565b1980831691505092915050565b6000610baa8383610b80565b9150826002028217905092915050565b610bc38261082c565b67ffffffffffffffff811115610bdc57610bdb610643565b5b610be682546109dd565b610bf1828285610b2d565b600060209050601f831160018114610c245760008415610c12578287015190505b610c1c8582610b9e565b865550610c84565b601f198416610c3286610a0e565b60005b82811015610c5a57848901518255600182019150602085019450602081019050610c35565b86831015610c775784890151610c73601f891682610b80565b8355505b6001600288020188555050505b505050505050565b600081905092915050565b6000610ca28261082c565b610cac8185610c8c565b9350610cbc818560208601610848565b80840191505092915050565b6000610cd48284610c97565b91508190509291505056fea2646970667358221220f7d09594950ae794d2972d31f2016d6847b5ac630adf3a9522ff653d8f162e9d64736f6c63430008130033",
  "linkReferences": {},
  "deployedLinkReferences": {}
}