{
  "_format": "hh-sol-artifact-1",
  "contractName": "ReTEX",
  "sourceName": "src/ReTEX.sol",
  "abi": [
    {
      "inputs": [],
      "stateMutability": "nonpayable",
      "type": "constructor"
    },
    {
      "anonymous": false,
      "inputs": [
        {
          "indexed": true,
          "internalType": "address",
          "name": "user",
          "type": "address"
        },
        {
          "indexed": true,
          "internalType": "address",
          "name": "selectedUser",
          "type": "address"
        },
        {
          "indexed": false,
          "internalType": "uint256",
          "name": "tradeAmount",
          "type": "uint256"
        }
      ],
      "name": "TradeInitiated",
      "type": "event"
    },
    {
      "inputs": [
        {
          "internalType": "uint256",
          "name": "",
          "type": "uint256"
        }
      ],
      "name": "UserArray",
      "outputs": [
        {
          "internalType": "uint256",
          "name": "produced",
          "type": "uint256"
        },
        {
          "internalType": "uint256",
          "name": "consumed",
          "type": "uint256"
        },
        {
          "internalType": "string",
          "name": "name",
          "type": "string"
        }
      ],
      "stateMutability": "view",
      "type": "function"
    },
    {
      "inputs": [
        {
          "internalType": "address",
          "name": "",
          "type": "address"
        }
      ],
      "name": "UserDatamap",
      "outputs": [
        {
          "internalType": "uint256",
          "name": "produced",
          "type": "uint256"
        },
        {
          "internalType": "uint256",
          "name": "consumed",
          "type": "uint256"
        },
        {
          "internalType": "string",
          "name": "name",
          "type": "string"
        }
      ],
      "stateMutability": "view",
      "type": "function"
    },
    {
      "inputs": [
        {
          "internalType": "uint256",
          "name": "index",
          "type": "uint256"
        }
      ],
      "name": "getUserDetails",
      "outputs": [
        {
          "internalType": "uint256",
          "name": "",
          "type": "uint256"
        },
        {
          "internalType": "uint256",
          "name": "",
          "type": "uint256"
        },
        {
          "internalType": "string",
          "name": "",
          "type": "string"
        }
      ],
      "stateMutability": "view",
      "type": "function"
    },
    {
      "inputs": [
        {
          "internalType": "string",
          "name": "_name",
          "type": "string"
        }
      ],
      "name": "getValueByName",
      "outputs": [
        {
          "internalType": "uint256",
          "name": "",
          "type": "uint256"
        },
        {
          "internalType": "uint256",
          "name": "",
          "type": "uint256"
        },
        {
          "internalType": "string",
          "name": "",
          "type": "string"
        }
      ],
      "stateMutability": "view",
      "type": "function"
    },
    {
      "inputs": [],
      "name": "getValues",
      "outputs": [
        {
          "internalType": "uint256",
          "name": "",
          "type": "uint256"
        },
        {
          "internalType": "uint256",
          "name": "",
          "type": "uint256"
        },
        {
          "internalType": "string",
          "name": "",
          "type": "string"
        }
      ],
      "stateMutability": "view",
      "type": "function"
    },
    {
      "inputs": [
        {
          "internalType": "string",
          "name": "",
          "type": "string"
        }
      ],
      "name": "nameToAddress",
      "outputs": [
        {
          "internalType": "address",
          "name": "",
          "type": "address"
        }
      ],
      "stateMutability": "view",
      "type": "function"
    },
    {
      "inputs": [],
      "name": "owner",
      "outputs": [
        {
          "internalType": "address",
          "name": "",
          "type": "address"
        }
      ],
      "stateMutability": "view",
      "type": "function"
    },
    {
      "inputs": [
        {
          "internalType": "string",
          "name": "_name",
          "type": "string"
        }
      ],
      "name": "setName",
      "outputs": [],
      "stateMutability": "nonpayable",
      "type": "function"
    },
    {
      "inputs": [
        {
          "internalType": "string",
          "name": "_name",
          "type": "string"
        },
        {
          "internalType": "uint256",
          "name": "tradeResource",
          "type": "uint256"
        }
      ],
      "name": "setTrade",
      "outputs": [],
      "stateMutability": "nonpayable",
      "type": "function"
    },
    {
      "inputs": [
        {
          "internalType": "uint256",
          "name": "_value1",
          "type": "uint256"
        },
        {
          "internalType": "uint256",
          "name": "_value2",
          "type": "uint256"
        }
      ],
      "name": "setValues",
      "outputs": [],
      "stateMutability": "nonpayable",
      "type": "function"
    }
  ],
  "bytecode": "0x60a060405234801561001057600080fd5b503373ffffffffffffffffffffffffffffffffffffffff1660808173ffffffffffffffffffffffffffffffffffffffff168152505060805161153761006060003960006107ec01526115376000f3fe608060405234801561001057600080fd5b506004361061009e5760003560e01c80638da5cb5b116100665780638da5cb5b146101735780639c3dfaf614610191578063c47f0027146101ad578063f5263bb4146101c9578063fac9b8c2146101fb5761009e565b806306dda8e5146100a357806308d88aad146100d557806319eb4a90146101055780631c1a9f7b146101255780637b8c0eaf14610157575b600080fd5b6100bd60048036038101906100b89190610b86565b61022d565b6040516100cc93929190610c52565b60405180910390f35b6100ef60048036038101906100ea9190610dc5565b6102ef565b6040516100fc9190610e4f565b60405180910390f35b61010d610338565b60405161011c93929190610c52565b60405180910390f35b61013f600480360381019061013a9190610b86565b610426565b60405161014e93929190610c52565b60405180910390f35b610171600480360381019061016c9190610e6a565b61053f565b005b61017b6107ea565b6040516101889190610e4f565b60405180910390f35b6101ab60048036038101906101a69190610ec6565b61080e565b005b6101c760048036038101906101c29190610dc5565b6108a6565b005b6101e360048036038101906101de9190610f32565b610956565b6040516101f293929190610c52565b60405180910390f35b61021560048036038101906102109190610dc5565b610a08565b60405161022493929190610c52565b60405180910390f35b6000818154811061023d57600080fd5b906000526020600020906003020160009150905080600001549080600101549080600201805461026c90610f8e565b80601f016020809104026020016040519081016040528092919081815260200182805461029890610f8e565b80156102e55780601f106102ba576101008083540402835291602001916102e5565b820191906000526020600020905b8154815290600101906020018083116102c857829003601f168201915b5050505050905083565b6001818051602081018201805184825260208301602085012081835280955050505050506000915054906101000a900473ffffffffffffffffffffffffffffffffffffffff1681565b60008060606000600260003373ffffffffffffffffffffffffffffffffffffffff1673ffffffffffffffffffffffffffffffffffffffff1681526020019081526020016000209050806000015481600101548260020180805461039a90610f8e565b80601f01602080910402602001604051908101604052809291908181526020018280546103c690610f8e565b80156104135780601f106103e857610100808354040283529160200191610413565b820191906000526020600020905b8154815290600101906020018083116103f657829003601f168201915b5050505050905093509350935050909192565b60008060606000805490508410610472576040517f08c379a00000000000000000000000000000000000000000000000000000000081526004016104699061100b565b60405180910390fd5b60008085815481106104875761048661102b565b5b9060005260206000209060030201905080600001548160010154826002018080546104b190610f8e565b80601f01602080910402602001604051908101604052809291908181526020018280546104dd90610f8e565b801561052a5780601f106104ff5761010080835404028352916020019161052a565b820191906000526020600020905b81548152906001019060200180831161050d57829003601f168201915b50505050509050935093509350509193909250565b60008111610582576040517f08c379a0000000000000000000000000000000000000000000000000000000008152600401610579906110cc565b60405180910390fd5b600260003373ffffffffffffffffffffffffffffffffffffffff1673ffffffffffffffffffffffffffffffffffffffff16815260200190815260200160002060010154600260003373ffffffffffffffffffffffffffffffffffffffff1673ffffffffffffffffffffffffffffffffffffffff16815260200190815260200160002060000154610612919061111b565b8111610653576040517f08c379a000000000000000000000000000000000000000000000000000000000815260040161064a906111c1565b60405180910390fd5b80600260003373ffffffffffffffffffffffffffffffffffffffff1673ffffffffffffffffffffffffffffffffffffffff16815260200190815260200160002060000160008282546106a5919061111b565b9250508190555080600260006001856040516106c1919061121d565b908152602001604051809103902060009054906101000a900473ffffffffffffffffffffffffffffffffffffffff1673ffffffffffffffffffffffffffffffffffffffff1673ffffffffffffffffffffffffffffffffffffffff168152602001908152602001600020600101600082825461073c9190611234565b92505081905550600182604051610753919061121d565b908152602001604051809103902060009054906101000a900473ffffffffffffffffffffffffffffffffffffffff1673ffffffffffffffffffffffffffffffffffffffff163373ffffffffffffffffffffffffffffffffffffffff167f87b341066a8966129b4991d8ae6d5f8c468d682a79858106920ebf61cf9b57e7836040516107de9190611268565b60405180910390a35050565b7f000000000000000000000000000000000000000000000000000000000000000081565b600033905082600260008373ffffffffffffffffffffffffffffffffffffffff1673ffffffffffffffffffffffffffffffffffffffff1681526020019081526020016000206000018190555081600260008373ffffffffffffffffffffffffffffffffffffffff1673ffffffffffffffffffffffffffffffffffffffff16815260200190815260200160002060010181905550505050565b80600260003373ffffffffffffffffffffffffffffffffffffffff1673ffffffffffffffffffffffffffffffffffffffff16815260200190815260200160002060020190816108f5919061142f565b5033600182604051610907919061121d565b908152602001604051809103902060006101000a81548173ffffffffffffffffffffffffffffffffffffffff021916908373ffffffffffffffffffffffffffffffffffffffff16021790555050565b600260205280600052604060002060009150905080600001549080600101549080600201805461098590610f8e565b80601f01602080910402602001604051908101604052809291908181526020018280546109b190610f8e565b80156109fe5780601f106109d3576101008083540402835291602001916109fe565b820191906000526020600020905b8154815290600101906020018083116109e157829003601f168201915b5050505050905083565b60008060606000600185604051610a1f919061121d565b908152602001604051809103902060009054906101000a900473ffffffffffffffffffffffffffffffffffffffff1690506000600260008373ffffffffffffffffffffffffffffffffffffffff1673ffffffffffffffffffffffffffffffffffffffff16815260200190815260200160002090508060000154816001015482600201808054610aad90610f8e565b80601f0160208091040260200160405190810160405280929190818152602001828054610ad990610f8e565b8015610b265780601f10610afb57610100808354040283529160200191610b26565b820191906000526020600020905b815481529060010190602001808311610b0957829003601f168201915b5050505050905094509450945050509193909250565b6000604051905090565b600080fd5b600080fd5b6000819050919050565b610b6381610b50565b8114610b6e57600080fd5b50565b600081359050610b8081610b5a565b92915050565b600060208284031215610b9c57610b9b610b46565b5b6000610baa84828501610b71565b91505092915050565b610bbc81610b50565b82525050565b600081519050919050565b600082825260208201905092915050565b60005b83811015610bfc578082015181840152602081019050610be1565b60008484015250505050565b6000601f19601f8301169050919050565b6000610c2482610bc2565b610c2e8185610bcd565b9350610c3e818560208601610bde565b610c4781610c08565b840191505092915050565b6000606082019050610c676000830186610bb3565b610c746020830185610bb3565b8181036040830152610c868184610c19565b9050949350505050565b600080fd5b600080fd5b7f4e487b7100000000000000000000000000000000000000000000000000000000600052604160045260246000fd5b610cd282610c08565b810181811067ffffffffffffffff82111715610cf157610cf0610c9a565b5b80604052505050565b6000610d04610b3c565b9050610d108282610cc9565b919050565b600067ffffffffffffffff821115610d3057610d2f610c9a565b5b610d3982610c08565b9050602081019050919050565b82818337600083830152505050565b6000610d68610d6384610d15565b610cfa565b905082815260208101848484011115610d8457610d83610c95565b5b610d8f848285610d46565b509392505050565b600082601f830112610dac57610dab610c90565b5b8135610dbc848260208601610d55565b91505092915050565b600060208284031215610ddb57610dda610b46565b5b600082013567ffffffffffffffff811115610df957610df8610b4b565b5b610e0584828501610d97565b91505092915050565b600073ffffffffffffffffffffffffffffffffffffffff82169050919050565b6000610e3982610e0e565b9050919050565b610e4981610e2e565b82525050565b6000602082019050610e646000830184610e40565b92915050565b60008060408385031215610e8157610e80610b46565b5b600083013567ffffffffffffffff811115610e9f57610e9e610b4b565b5b610eab85828601610d97565b9250506020610ebc85828601610b71565b9150509250929050565b60008060408385031215610edd57610edc610b46565b5b6000610eeb85828601610b71565b9250506020610efc85828601610b71565b9150509250929050565b610f0f81610e2e565b8114610f1a57600080fd5b50565b600081359050610f2c81610f06565b92915050565b600060208284031215610f4857610f47610b46565b5b6000610f5684828501610f1d565b91505092915050565b7f4e487b7100000000000000000000000000000000000000000000000000000000600052602260045260246000fd5b60006002820490506001821680610fa657607f821691505b602082108103610fb957610fb8610f5f565b5b50919050565b7f496e646578206f7574206f6620626f756e647300000000000000000000000000600082015250565b6000610ff5601383610bcd565b915061100082610fbf565b602082019050919050565b6000602082019050818103600083015261102481610fe8565b9050919050565b7f4e487b7100000000000000000000000000000000000000000000000000000000600052603260045260246000fd5b7f547261646520616d6f756e74206d75737420626520677265617465722074686160008201527f6e207a65726f0000000000000000000000000000000000000000000000000000602082015250565b60006110b6602683610bcd565b91506110c18261105a565b604082019050919050565b600060208201905081810360008301526110e5816110a9565b9050919050565b7f4e487b7100000000000000000000000000000000000000000000000000000000600052601160045260246000fd5b600061112682610b50565b915061113183610b50565b9250828203905081811115611149576111486110ec565b5b92915050565b7f547261646520616d6f756e74206d757374206265206d6f7265207468616e206160008201527f7661696c61626c65000000000000000000000000000000000000000000000000602082015250565b60006111ab602883610bcd565b91506111b68261114f565b604082019050919050565b600060208201905081810360008301526111da8161119e565b9050919050565b600081905092915050565b60006111f782610bc2565b61120181856111e1565b9350611211818560208601610bde565b80840191505092915050565b600061122982846111ec565b915081905092915050565b600061123f82610b50565b915061124a83610b50565b9250828201905080821115611262576112616110ec565b5b92915050565b600060208201905061127d6000830184610bb3565b92915050565b60008190508160005260206000209050919050565b60006020601f8301049050919050565b600082821b905092915050565b6000600883026112e57fffffffffffffffffffffffffffffffffffffffffffffffffffffffffffffffff826112a8565b6112ef86836112a8565b95508019841693508086168417925050509392505050565b6000819050919050565b600061132c61132761132284610b50565b611307565b610b50565b9050919050565b6000819050919050565b61134683611311565b61135a61135282611333565b8484546112b5565b825550505050565b600090565b61136f611362565b61137a81848461133d565b505050565b5b8181101561139e57611393600082611367565b600181019050611380565b5050565b601f8211156113e3576113b481611283565b6113bd84611298565b810160208510156113cc578190505b6113e06113d885611298565b83018261137f565b50505b505050565b600082821c905092915050565b6000611406600019846008026113e8565b1980831691505092915050565b600061141f83836113f5565b9150826002028217905092915050565b61143882610bc2565b67ffffffffffffffff81111561145157611450610c9a565b5b61145b8254610f8e565b6114668282856113a2565b600060209050601f8311600181146114995760008415611487578287015190505b6114918582611413565b8655506114f9565b601f1984166114a786611283565b60005b828110156114cf578489015182556001820191506020850194506020810190506114aa565b868310156114ec57848901516114e8601f8916826113f5565b8355505b6001600288020188555050505b50505050505056fea2646970667358221220afc6ea23e8089216f4e93e3329c18ff4a3c1e567b1d63812e97d2389352560fe64736f6c63430008130033",
  "linkReferences": {},
  "deployedLinkReferences": {}
}